:1000000058C000007EC000007CC000007AC0000024
:1000100078C0000076C0000074C0000072C000000C
:1000200070C000006EC000006CC000006AC000001C
:1000300068C000000C94EB0864C0000062C00000BF
:100040000C94FF0F5EC000000C9435120C946712E4
:1000500058C0000056C0000054C0000052C000004C
:100060000C94E20E4EC000000000000800020100E7
:100070000003040700000000000000000102040863
:100080001020408001020408102001020408102002
:10009000040404040404040402020202020203032E
:1000A0000303030300000000250028002B004E0C72
:1000B0008C1211241FBECFEFD8E0DEBFCDBF11E000
:1000C000A0E0B1E0E2E3F6E202C005900D92AE32AC
:1000D000B107D9F722E0AEE2B1E001C01D92AB3F1B
:1000E000B207E1F710E0C9E5D0E004C02197FE01B6
:1000F0000E940813C735D107C9F70E944D090C9417
:1001000017137ECFCF92DF92EF92FF926B017C01AB
:10011000C114D104E104F10469F48091000181115A
:1001200009C080910201909103010E94BF0B81E000
:1001300080930001C601880F991F880F991F805076
:100140009F4FFF90EF90DF90CF900895009781F040
:10015000FC012181211104C040EA56E861E070E011
:10016000FC01828193810E94CE0B90E080E0089593
:1001700088E090E008954F925F926F927F928F9205
:100180009F92AF92BF92CF92DF92EF92FF920F9326
:100190001F93CF93DF930097C9F1280139017A01AA
:1001A000EC01402F8A819B810E944C0C8A819B81AB
:1001B000DC01ED91FC910084F185E02D0995892BFE
:1001C00001F16701812C912C54018A819B81DC0112
:1001D000ED91FC910084F185E02D0995892B91F139
:1001E00084149504A604B70469F18A819B81DC011B
:1001F000ED91FC910284F385E02D09958F3F9807DE
:10020000C1F484E0F70111928A95E9F788E090E063
:10021000DF91CF911F910F91FF90EF90DF90CF90E2
:10022000BF90AF909F908F907F906F905F904F9016
:100230000895FFEF8F1A9F0AAF0ABF0AD6018D9368
:100240006D01C3CF90E080E0E3CF8F929F92AF9299
:10025000BF92CF92DF92EF920F931F93CF93DF93D2
:100260000097F1F06A01EC018A819B810E94D10B19
:100270008A819B81DC01ED91FC910280F381E02D6C
:10028000A801B60109958A819B8160E0E11001C057
:1002900061E00E94DB0B882389F08250823088F075
:1002A00088E090E0DF91CF911F910F91EF90DF9068
:1002B000CF90BF90AF909F908F90089590E080E096
:1002C000F1CF84E090E0EECF089526E086E092E062
:1002D0000C94D5118F929F92AF92BF92CF92DF92E2
:1002E000EF92FF926B017C010E9449104B015C016F
:1002F0000E944910681979098A099B09C616D70610
:10030000E806F906A8F7FF90EF90DF90CF90BF9036
:10031000AF909F908F9008958F929F92AF92BF92CF
:10032000CF92DF92EF92FF926B017C010E945510F9
:100330004B015C010E945510681979098A099B09D3
:10034000C616D706E806F906A8F7FF90EF90DF90EB
:10035000CF90BF90AF909F908F900895CF92EF92E3
:100360000F931F93CF93DF931F92CDB7DEB78BE12F
:100370008983C12CEE24E39401E010E020E030E01A
:10038000AE014F5F5F4F68E670E08091B2029091DE
:10039000B3025BDF982F811121C0CC24C394E12CE0
:1003A00001E010E020E030E0AE014F5F5F4F68E613
:1003B00070E08091B2029091B302DDDE89810F90EE
:1003C000DF91CF911F910F91EF90CF900895809181
:1003D000E50281110AC09093E502F1CF8091E60217
:1003E0008823A9F381E08093E70280E0E8CF4F9271
:1003F0005F926F927F928F929F92AF92BF92CF92B5
:10040000DF92EF92FF920F931F93CF93DF93CDB7BD
:10041000DEB76D970FB6F894DEBF0FBECDBFC090AC
:100420000401D0900501E0900601F0900701A701BA
:1004300096016091A9027091AA028091AB029091FD
:10044000AC02C7D7882341F0C092A902D092AA0279
:10045000E092AB02F092AC021092E5028BE38D8F3A
:10046000C12CEE24E39401E010E020E030E0AE0186
:10047000435E5F4F68E670E08091B2029091B302F4
:10048000E4DE81117EC1CC24C394E12C06E010E0AF
:1004900020E030E0AE01415F5F4F68E670E08091A0
:1004A000B2029091B30267DE86E0FE013F96DE0164
:1004B000559601900D928A95E1F783E48D8FC12CBA
:1004C000EE24E39401E010E020E030E0AE01435E72
:1004D0005F4F68E670E08091B2029091B302B5DEA2
:1004E00081115AC1CC24C394E12C06E010E020E035
:1004F00030E0AE01415F5F4F68E670E08091B2028C
:100500009091B30238DE86E0FE013F96DE015596FB
:1005100001900D928A95E1F782E08D8FC12CEE2437
:10052000E39401E010E020E030E0AE01435E5F4F75
:100530006CE070E08091C1029091C20286DE811170
:1005400036C1CC24C394E12C01E010E020E030E07F
:10055000AE01435E5F4F6CE070E08091C10290910C
:10056000C20209DE9D8D90FFC4C083E08D8FC12C37
:10057000EE24E39401E010E020E030E0AE01435EC1
:100580005F4F6CE070E08091C1029091C2025DDE2D
:100590008823F9F0188619861A861B861C861D8604
:1005A0001E869091E6029111E1C09091E5029111B1
:1005B0002AC08093E50227C081E08093E7027DCFC7
:1005C00081E08093E702A8CF81E08093E70290E08A
:1005D000CACFCC24C394E12C07E010E020E030E047
:1005E000AE014F5F5F4F6CE070E08091C10290916F
:1005F000C202C1DD87E0FE013196DE01189601904E
:100600000D928A95E1F78E8583FD73C068857985A3
:10061000072E000C880B990BE2D62091CB0230916B
:10062000CC024091CD025091CE0289D76B017C0162
:10063000C092ED02D092EE02E092EF02F092F00250
:100640006A857B85072E000C880B990BC8D62091F4
:10065000CF023091D0024091D1025091D2026FD797
:100660004B015C018092F1029092F202A092F3029F
:10067000B092F4026C857D85072E000C880B990BD7
:10068000AED62091D3023091D4024091D502509140
:10069000D60255D72B013C0129E939E849E15EE34F
:1006A000C701B6014CD76093D7027093D8028093EC
:1006B000D9029093DA0229E939E849E15EE3C501FC
:1006C000B4013DD76093DB027093DC028093DD02BE
:1006D0009093DE0229E939E849E15EE3C301B20102
:1006E0002ED76093DF027093E0028093E102909333
:1006F000E20281E48D8FC12CEE24E39401E010E04E
:1007000020E030E0AE01435E5F4F68E670E080912C
:10071000B2029091B30299DD811154C0CC24C394EC
:10072000E12C02E010E020E030E0AE01455E5F4FDA
:1007300068E670E08091B2029091B3021CDD6D9684
:100740000FB6F894DEBF0FBECDBFDF91CF911F91E2
:100750000F91FF90EF90DF90CF90BF90AF909F9060
:100760008F907F906F905F904F90089581E080937D
:10077000E70249CF9091E5029111E1CF8093E50224
:10078000DECF9091E602911117CF9091E502911181
:1007900094CE8093E50291CE9091E602911110CF14
:1007A0009091E5029111B8CE8093E502B5CE90917B
:1007B000E602911109CF9091E502911108CF809343
:1007C000E502D1CE9091E6029923A1F281E08093D7
:1007D000E702B5CFCF92DF92EF92FF920F931F9374
:1007E000CF93DF93CDB7DEB76A970FB6F894DEBF2D
:1007F0000FBECDBF10922F0110922E01E7EAF2E05A
:1008000082E4DF011D928A95E9F780E090E5A3EC90
:10081000B8E48093B8029093B902A093BA02B0935F
:10082000BB028093C7029093C802A093C902B09301
:10083000CA021092A302FF24F394F092E80280917E
:10084000040190910501A0910601B09107018093E8
:10085000A9029093AA02A093AB02B093AC0281E0EC
:1008600090E0A0E0B0E08093A4029093A502A09352
:10087000A602B093A702F092E6021092E90210924B
:10088000EA021092EB021092EC0250E040E060E0CD
:1008900070E0CB0137DC9093B3028093B20240EA60
:1008A00056E861E070E04093B4025093B502609363
:1008B000B6027093B7024ADC80E88F8B8BE68E8B92
:1008C0008E899F89998F888FC12CE12C02E010E0DE
:1008D00020E030E0AE01485E5F4F68E670E0809156
:1008E000B2029091B302B1DC882339F09091E60214
:1008F000992309F45CC0F092E70261E070E080E0C7
:1009000090E0E8DC1F8A8E899F89998F888FC12C9F
:10091000E12C02E010E020E030E0AE01485E5F4FE5
:1009200068E670E08091B2029091B3028EDC882379
:1009300041F09091E602992309F440C081E0809350
:10094000E70264E670E080E090E0C4DC85E789833C
:10095000C12CEE24E39401E010E020E030E0AE0191
:100960004F5F5F4F68E670E08091B2029091B302F2
:100970006CDCF82E81119BC3CC24C394E12C01E0E4
:1009800010E020E030E0AE014F5F5F4F68E670E0BE
:100990008091B2029091B302EEDB89818D7F813725
:1009A000A1F01092E30281E08093E702D4C290911B
:1009B000E5029111A2CF8093E5029FCF9091E502CD
:1009C0009111BFCF8093E502BCCFDD24D394D092A8
:1009D000E30289E18E8B8E899F89998F888FC12C44
:1009E000E12C02E010E020E030E0AE01485E5F4F15
:1009F00068E670E08091B2029091B30226DC882311
:100A000039F09091E602992309F4B9C2D092E70235
:100A100088E08F8B8DE18E8B8E899F89998F888F4F
:100A2000C12CE12C02E010E020E030E0AE01485E95
:100A30005F4F68E670E08091B2029091B30205DCEE
:100A4000882341F09091E602992309F49FC281E046
:100A50008093E7028CE18A8FC12CEE24E39401E0BD
:100A600010E020E030E0AE01465E5F4F68E670E0E7
:100A70008091B2029091B302E8DB811123C3CC24B0
:100A8000C394E12C01E010E020E030E0AE01465ECE
:100A90005F4F68E670E08091B2029091B3026BDB29
:100AA0009A8D98619F8B8CE18E8B8E899F89998F0F
:100AB000888FC12CE12C02E010E020E030E0AE0194
:100AC000485E5F4F68E670E08091B2029091B30299
:100AD000BCDB882341F09091E602992309F462C2BD
:100AE00081E08093E7023ADC88618F8B8BE18E8B0B
:100AF0008E899F89998F888FC12CE12C02E010E0AC
:100B000020E030E0AE01485E5F4F68E670E0809123
:100B1000B2029091B30299DB882341F09091E602F2
:100B2000992309F446C281E08093E70217DC8C7FA9
:100B300081608F8B8E899F89998F888FC12CE12C42
:100B400002E010E020E030E0AE01485E5F4F68E672
:100B500070E08091B2029091B30277DB882341F07C
:100B60009091E602992309F42BC281E08093E70279
:100B70001A828AE6898389819A8198878F83C12C1A
:100B8000E12C02E010E020E030E0AE01495F5F4F71
:100B900068E670E08091B2029091B30256DB882340
:100BA00041F09091E602992309F411C281E080930B
:100BB000E70263E070E080E090E08CDB82E88A830B
:100BC00087E3898389819A8198878F83C12CE12C5F
:100BD00002E010E020E030E0AE01495F5F4F68E6E0
:100BE00070E08091B2029091B3022FDB882341F034
:100BF0009091E602992309F4F1C181E08093E70224
:100C00001092E9021092EA021092EB021092EC02AA
:100C100050E040E060E070E0CB0174DA9093C202F3
:100C20008093C10240EA56E861E070E04093C3025D
:100C30005093C4026093C5027093C60287DA1A8E7D
:100C4000C12CEE24E39401E010E020E030E0AE019E
:100C5000465E5F4F6CE070E08091C1029091C202ED
:100C6000F4DA81113AC2CC24C394E12C01E010E003
:100C700020E030E0AE01465E5F4F6CE070E08091B6
:100C8000C1029091C20277DAFA8C81E0B8E4FB12DB
:100C900080E08093E402188A198A1A8A88E4F8129C
:100CA000C5C01F8A8AE08E8B8E899F89998F888F15
:100CB000C12CE12C02E010E020E030E0AE01485E03
:100CC0005F4F6CE070E08091C1029091C202BDDA8A
:100CD000882341F09091E602992309F48AC181E0CA
:100CE0008093E70261E070E080E090E0F3DA8FE06B
:100CF0008F8B8E899F89998F888FC12CE12C02E080
:100D000010E020E030E0AE01485E5F4F6CE070E044
:100D10008091C1029091C20298DA882341F09091AB
:100D2000E602992309F46CC181E08093E70261E057
:100D300070E080E090E0CEDA80E18A8FC12CEE2472
:100D4000E39401E010E020E030E0AE01465E5F4F4A
:100D50006CE070E08091C1029091C20276DA81115C
:100D6000C8C1CC24C394E12C03E010E020E030E0C3
:100D7000AE014D5E5F4F6CE070E08091C1029091DA
:100D8000C202F9D983E0FE017396DE01509601900C
:100D90000D928A95E1F71F8A8AE08E8B8E899F8952
:100DA000998F888FC12CE12C02E010E020E030E028
:100DB000AE01485E5F4F6CE070E08091C10290919F
:100DC000C20243DA882341F09091E602992309F4A4
:100DD00022C181E08093E70264E670E080E090E069
:100DE0009BDA86E18F8B8E899F89998F888FC12CA2
:100DF000E12C02E010E020E030E0AE01485E5F4F01
:100E00006CE070E08091C1029091C2021EDA8823EA
:100E100041F09091E602992309F404C181E08093A6
:100E2000E70264E670E080E090E076DA88898D87FA
:100E300089898E878A898F87DE011D9681E090E0FF
:100E400010E000E02D91211112C098012F5F3F4F5B
:100E5000000F111FE1E0F0E0EC0FFD1FE00FF11FAC
:100E6000918380838901233031050CF0E2C0019623
:100E70008430910539F70115110509F0DAC0109297
:100E8000F5021092F6021092F7021092F80220E09A
:100E900030E040EC50E46091F5027091F6028091F0
:100EA000F7029091F80295D2882309F454C068891A
:100EB00070E090E080E091D220E030E040E053E448
:100EC00023D220E030E040E85BE339D320E030E09B
:100ED00040E85FE31AD26093CB027093CC02809318
:100EE000CD029093CE02698970E090E080E075D2E7
:100EF00020E030E040E053E407D220E030E040E87A
:100F00005BE31DD320E030E040E85FE3FED1609377
:100F1000CF027093D0028093D1029093D2026A895B
:100F200070E090E080E059D220E030E040E053E40F
:100F3000EBD120E030E040E85BE301D320E030E09B
:100F400040E85FE3E2D16093D3027093D4028093D0
:100F5000D5029093D6021092E60281E08093A80217
:100F60006A960FB6F894DEBF0FBECDBFDF91CF916A
:100F70001F910F91FF90EF90DF90CF900895909187
:100F8000E502911145CD8093E50242CD9091E502B5
:100F9000911160CD8093E5025DCD81E08093E70201
:100FA00090E07FCD9091E50291119DCD8093E50277
:100FB0009ACD9091E5029111B9CD8093E502B6CD1D
:100FC0009091E5029111D4CD8093E502D1CD90911D
:100FD000E5029111EECD8093E502EBCD9091E50213
:100FE00091110ECE8093E5020BCE81E08093E70253
:100FF0004CCE9091E502911175CE8093E50272CEB0
:101000009091E502911193CE8093E50290CE81E01C
:101010008093E702C0CE9091E5029111DDCE8093DE
:10102000E502DACE9091E5029111FBCE8093E502C4
:10103000F8CEA801440F551FBE016F5F7F4FCE0150
:1010400007960E940E136F817885072E000C880B7F
:10105000990BC5D16B017C0101301105F9F069854F
:101060007A85072E000C880B990BB9D19B01AC0136
:10107000C701B6014AD16B017C010230110571F044
:101080006B857C85072E000C880B990BA8D19B01E2
:10109000AC01C701B60139D16B017C01C092F502E8
:1010A000D092F602E092F702F092F802F0CE809130
:1010B000E602811176CC8091E502811172CCF0922A
:1010C000E5026FCC9091E602911167CF9091E50215
:1010D000911166CF8093E502E4CC9091E6029111E4
:1010E00084CF9091E5029111D0CD8093E502F12C4F
:1010F000CCCD9091E60291118ACF9091E5029111A9
:101100004ACE8093E50247CE8091A30281111DC093
:1011100081E08093A3028091A4029091A502A09106
:10112000A602B091A7020197A105B10571F48091C3
:10113000A802882351F08091B2029091B302C4D8E2
:101140008091C1029091C202BFD88091BC028111EE
:101150001BC081E08093BC028091BD029091BE02D1
:10116000A091BF02B091C0020197A105B10561F441
:1011700082E090E0A0E0B0E08093BD029093BE02D8
:10118000A093BF02B093C0028091AD0281111BC039
:1011900081E08093AD028091AE029091AF02A09168
:1011A000B002B091B1020197A105B10561F482E0EE
:1011B00090E0A0E0B0E08093AE029093AF02A093E5
:1011C000B002B093B102089540E855E260E070E0EB
:1011D00090E080E07AC81F920F920FB60F92112410
:1011E0002F933F934F935F936F937F938F939F932F
:1011F000AF93BF93EF93FF938BEC93EF90938500A6
:101200008093840032D0FF91EF91BF91AF919F9175
:101210008F917F916F915F914F913F912F910F909F
:101220000FBE0F901F9018958BEC93EF9093850055
:1012300080938400AFE6B0E08C918E7F8C93E0E8E1
:10124000F0E080818C7F8083E1E8F0E08081877E20
:10125000808380818560808380818D7F80838C9175
:1012600081608C93089581E008958091300191E030
:10127000980F90933001882349F021E030E03093BB
:101280003201209331018093300108957894AFD8D2
:10129000F894809130018150F6CFCF93DF93109274
:1012A000FA021092F90226D78FDFC0910801D0917F
:1012B0000901198218828EDAF894B6DF81E028815C
:1012C0003981232B09F080E08093F9027894789497
:1012D0008091F902811107C017DFF89490E080E057
:1012E000DF91CF91089581E028813981232B09F482
:1012F00080E08093FA029091FA0281E0911180E0FF
:101300008093F902B0DFE4CF5058BB27AA270ED054
:10131000DCC0CDD030F0D2D020F031F49F3F11F4BA
:101320001EF4C2C00EF4E095E7FBB8C0E92FDED092
:1013300080F3BA17620773078407950718F071F4F2
:101340009EF5F6C00EF4E0950B2EBA2FA02D0B01E2
:10135000B90190010C01CA01A0011124FF27591BFA
:1013600099F0593F50F4503E68F11A16F040A22F00
:10137000232F342F4427585FF3CF46953795279571
:10138000A795F0405395C9F77EF41F16BA0B620B70
:10139000730B840BBAF09150A1F0FF0FBB1F661FB7
:1013A000771F881FC2F70EC0BA0F621F731F841FFA
:1013B00048F4879577956795B795F7959E3F08F020
:1013C000B3CF9395880F08F09927EE0F97958795DF
:1013D000089540D008F481E00895E89409C097FB8F
:1013E0003EF490958095709561957F4F8F4F9F4FFC
:1013F0009923A9F0F92F96E9BB279395F695879540
:1014000077956795B795F111F8CFFAF4BB0F11F402
:1014100060FF1BC06F5F7F4F8F4F9F4F16C08823A9
:1014200011F096E911C0772321F09EE8872F762FDF
:1014300005C0662371F096E8862F70E060E02AF020
:101440009A95660F771F881FDAF7880F969587950C
:1014500097F90895990F0008550FAA0BE0E8FEEFE1
:1014600016161706E807F907C0F012161306E40768
:10147000F50798F0621B730B840B950B39F40A2661
:1014800061F0232B242B252B21F408950A2609F43F
:10149000A140A6958FEF811D811D089597F99F6743
:1014A00080E870E060E008959FEF80EC08950024EC
:1014B0000A941616170618060906089500240A94B9
:1014C00012161306140605060895092E0394000C3F
:1014D00011F4882352F0BB0F40F4BF2B11F460FFCE
:1014E00004C06F5F7F4F8F4F9F4F089557FD9058F7
:1014F000440F551F59F05F3F71F04795880F97FBD8
:10150000991F61F09F3F79F0879508951216130691
:101510001406551FF2CF4695F1DF08C016161706C0
:101520001806991FF1CF86957105610508940895F5
:10153000E894BB2766277727CB0197F908950BD04E
:10154000C4CFB5DF28F0BADF18F0952309F0A6CF95
:10155000ABCF1124EECFCADFA0F3959FD1F3950F47
:1015600050E0551F629FF001729FBB27F00DB11D27
:10157000639FAA27F00DB11DAA1F649F6627B00DB7
:10158000A11D661F829F2227B00DA11D621F739FA0
:10159000B00DA11D621F839FA00D611D221F749FAE
:1015A0003327A00D611D231F849F600D211D822FF5
:1015B000762F6A2F11249F5750408AF0E1F088233C
:1015C0004AF0EE0FFF1FBB1F661F771F881F915049
:1015D0005040A9F79E3F510570F060CFAACF5F3F02
:1015E000ECF3983EDCF3869577956795B795F7957C
:1015F000E7959F5FC1F7FE2B880F911D9695879504
:1016000097F9089590E080E00895809167019091A6
:101610006801891B990B0895909168018091670179
:101620002FEF3FEF981748F4E92FF0E0E759FE4F0E
:10163000208130E09F5F90936801C9010895E09197
:10164000680180916701E81730F4F0E0E759FE4F38
:10165000808190E008958FEF9FEF08950895CF93D4
:10166000DF93EC01E0913F01F09140013097F1F000
:1016700090916801809167019817C0F090E0292F40
:1016800030E02617370754F4DE01A20FB31F4C9148
:1016900027593E4FD9014C939F5FF1CF10926801BB
:1016A00060936701CB01DF91CF910994DF91CF91D6
:1016B0000895E0914101F0914201309729F0109294
:1016C00045011092440109940895CF93DF931F922E
:1016D000CDB7DEB76983209143012223F9F0209131
:1016E0004401203258F021E030E0FC0133832283B2
:1016F00090E080E00F90DF91CF91089580914501B7
:10170000E82FF0E0EA5BFE4F998190838F5F809332
:1017100045018093440181E090E0ECCF61E0CE018F
:10172000019606D1F8CFCF92DF92EF92FF920F93FE
:101730001F93CF93DF937C01CB018A01209143015A
:10174000222389F0EB016B01C40ED51ECC15DD05FB
:1017500061F06991D701ED91FC910190F081E02D4C
:10176000C7010995F3CF642FE3D0C801DF91CF9172
:101770001F910F91FF90EF90DF90CF9008951092FE
:10178000680110926701109245011092440197D0B0
:1017900089E59BE0F9D08FE29BE0F1C0CB01BA0173
:1017A000B5C081E0809343016093660110924501CA
:1017B0001092440108950F93062F21E040914401B7
:1017C00066E471E080916601DBD1109245011092D0
:1017D0004401109243010F9108954F925F926F92CE
:1017E0007F92AF92BF92CF92EF92FF920F931F938F
:1017F000CF93DF935C01F62ED42F28013901EE2020
:1018000009F1CFDFCE2DC43008F0C3E0C150B8F0ED
:1018100028E0C29FC0011124A301920104C0569583
:101820004795379527958A95D2F7B901D501ED915E
:10183000FC910190F081E02DC5010995E7CF60E0B2
:10184000C501B9DF4D2FD13208F040E22C2D69E6F9
:1018500071E08F2DB8D01092680180936701DF91FD
:10186000CF911F910F91FF90EF90CF90BF90AF90CD
:101870007F906F905F904F900895CF92EF920F936B
:101880001F93C22EE12C00E010E09801A6DF1F910B
:101890000F91EF90CF90089521E0EFCFE3E3F1E0D7
:1018A0001382128288EE93E0A0E0B0E084839583F7
:1018B000A683B7838EE091E0918380830895109290
:1018C000FC0181E08093FA011092F90161E082E16C
:1018D00075D461E083E172D4E9EBF0E080818E7F22
:1018E000808380818D7F808388E48093B80085E445
:1018F0008093BC000895ECEBF0E080818A7B8083CC
:1019000060E082E15BD460E083E158C49B01AC01FC
:1019100060E074E284EF90E059D62051310941092A
:10192000510956954795379527952093B800089506
:101930002091AB01260F3327331F21323105ECF400
:101940002091FC01FC0190E080E0243069F082E00D
:101950000895A091AB012191AC0143555E4FA40FB6
:10196000B52FB11D2C930196861798F38091AB018A
:10197000680F6093AB0180E0089581E00895909333
:10198000F0018093EF0108959093F2018093F101AB
:10199000089585EC8093BC001092FC010895CF93CC
:1019A000DF9391E09093F401882351F0C091B80047
:1019B000D091BA00A0DF83DFD093BA00C093B80003
:1019C000DF91CF9108954F925F926F927F928F92A5
:1019D0009F92AF92BF92CF92DF92EF92FF920F93BE
:1019E0001F93CF93DF93D82F162F072FC42FB22E1C
:1019F000413208F09DC059D36B017C018091FC01FC
:101A0000811173C081E08093FC01B092FA019FEFD5
:101A1000909389011092CE019C0F9093CD018093F9
:101A2000FB018091FB01DD0FD82BD093FB0180914E
:101A3000F901813009F07EC01092F90136D36B01B3
:101A40007C018091FB018093BB008091F501909116
:101A5000F601A091F701B091F801892B8A2B8B2B0D
:101A600099F023D38090F5019090F601A090F701B2
:101A7000B090F8016C197D098E099F0986169706AA
:101A8000A806B90608F451C08091BC0083FDD9CFE7
:101A900085EC8093BC0009D36B017C018091FC0133
:101AA000813009F449C08091CE018C1710F4C091A7
:101AB000CE01AFECB1E0912FE12FF02F8E2F891BDB
:101AC0008C1708F45AC08C2FDF91CF911F910F9182
:101AD000FF90EF90DF90CF90BF90AF909F908F904E
:101AE0007F906F905F904F9008958091F501909155
:101AF000F601A091F701B091F801892B8A2B8B2B6D
:101B000009F47CCFD2D24090F5015090F60160905C
:101B1000F7017090F8016C197D098E099F0946162E
:101B200057066806790608F069CF8091F30137DF20
:101B3000C0E0C9CF85EEADCF8091F5019091F6015F
:101B4000A091F701B091F801892B8A2B8B2B09F416
:101B5000A5CFABD28090F5019090F601A090F7014F
:101B6000B090F8016C197D098E099F0986169706B9
:101B7000A806B90608F092CFD8CF8D9181939ECF59
:101B80004F925F926F927F928F929F92AF92BF928D
:101B9000EF92FF920F931F93CF93DF93413208F0A0
:101BA000D2C0F22ED42FE72E162FC82F7ED24B0193
:101BB0005C018091FC0181116DC082E08093FC0189
:101BC0000093FA018FEF809389011092CE01D09398
:101BD000CD01912FAFECB1E0E12FFE2D8E2F891BAF
:101BE0008D1708F48AC01092FB018091FB01CC0F85
:101BF000C82BC093FB018091F901813009F080C0AE
:101C00001092F90152D24B015C018091FB0180934B
:101C1000BB008091F5019091F601A091F701B09180
:101C2000F801892B8A2B8B2B99F03FD20091F5017B
:101C30001091F6012091F7013091F80168197909A6
:101C40008A099B09061717072807390708F442C0B5
:101C50008091BC0083FDD9CF85EC8093BC0025D258
:101C60004B015C01FF2029F08091FC01823009F4D6
:101C700049C0809189018F3F09F467C08091890133
:101C8000803209F464C080918901803309F461C015
:101C900084E024C08091F5019091F601A091F701B4
:101CA000B091F801892B8A2B8B2B09F482CFFDD1BF
:101CB0004090F5015090F6016090F7017090F801A6
:101CC000681979098A099B09461657066806790634
:101CD00008F06FCF8091F30162DE85E0DF91CF9154
:101CE0001F910F91FF90EF90BF90AF909F908F90BA
:101CF0007F906F905F904F90089581918D936ECFFC
:101D000085EEABCF8091F5019091F601A091F7019E
:101D1000B091F801892B8A2B8B2B09F4A3CFC5D165
:101D20000091F5011091F6012091F7013091F80131
:101D3000681979098A099B090617170728073907BF
:101D400008F090CFC7CF81E0C9CF80E0C7CF82E055
:101D5000C5CF83E0C3CF85ED8093BC008091F501B2
:101D60009091F601A091F701B091F8010796A11D9D
:101D7000B11D23E0B695A795979587952A95D1F73C
:101D80002091BC0024FD03C01092FC0108954091F5
:101D9000F5015091F6016091F7017091F801452B22
:101DA000462B472B69F30097A105B10541F025E3C8
:101DB0002A95F1F700000197A109B109E1CF8091BF
:101DC000F301EDCD1F920F920FB60F9211242F93B6
:101DD0003F934F935F936F937F938F939F93AF93B3
:101DE000BF93EF93FF938091B900887F803609F409
:101DF0004AC008F03DC0883209F4A6C018F5803109
:101E000009F49AC0B8F4882309F4F6C0883009F4BC
:101E100093C0FF91EF91BF91AF919F918F917F916F
:101E20006F915F914F913F912F910F900FBE0F9047
:101E30001F901895883109F487C0803251F780933C
:101E4000890114C0803409F49CC040F48033B9F394
:101E50008833F9F6809389019CDDDBCF803509F466
:101E600084C0883509F495C0883499F674DFD1CFE1
:101E7000883909F48CC038F5883729F050F4883651
:101E800011F0803731F683E08093FC0110928A01D3
:101E900057C0883809F47BC0803919F0803809F0C0
:101EA000B8CF80918A01803208F071C0E0918A0138
:101EB00081E08E0F80938A018091BB00F0E0E557AE
:101EC000FE4F80833DC0803B39F0E0F4803A09F456
:101ED00079C0883A09F09DCF84E08093FC0110928C
:101EE000AC011092AB01E091F101F091F201099582
:101EF0008091AB0181110FC081E08093AB01109202
:101F0000AD0109C0803C09F475C0883C09F472C079
:101F1000883B09F07ECFE091AC0181E08E0F809389
:101F2000AC01F0E0E355FE4F80818093BB009091BF
:101F3000AC018091AB0129C08091FB018093BB0073
:101F400085EC8093BC0065CF9091CE018091CD014E
:101F5000981758F5E091CE0181E08E0F8093CE0165
:101F6000F0E0E153FE4F8081E9CFE091CE0181E0C6
:101F70008E0F8093CE018091BB00F0E0E153FE4FC5
:101F800080839091CE018091CD019817C8F285E8A9
:101F9000D8CFE091CE0181E08E0F8093CE01809169
:101FA000BB00F0E0E153FE4F80838091FA01811184
:101FB0005DCF81E08093F90184EA8093BC001092A8
:101FC000FC0127CFE6DC80918A01803230F4E09179
:101FD0008A01F0E0E557FE4F108260918A0170E0BF
:101FE000E091EF01F091F0018BE891E009951092FA
:101FF0008A010FCF85ECE1CF1092890137CF1F9274
:102000000F920FB60F9211242F933F938F939F93AC
:10201000AF93BF938091FE019091FF01A0910002C8
:10202000B09101023091FD0123E0230F2D3758F5C7
:102030000196A11DB11D2093FD018093FE01909397
:10204000FF01A0930002B0930102809102029091DF
:102050000302A0910402B09105020196A11DB11DD9
:102060008093020290930302A0930402B0930502AE
:10207000BF91AF919F918F913F912F910F900FBE84
:102080000F901F90189526E8230F0296A11DB11DF1
:10209000D2CF2FB7F8946091FE017091FF0180912B
:1020A0000002909101022FBF08953FB7F8948091EC
:1020B000020290910302A0910402B091050226B59C
:1020C000A89B05C02F3F19F00196A11DB11D3FBF70
:1020D000BA2FA92F982F8827BC01CD01620F711D3F
:1020E000811D911D42E0660F771F881F991F4A9539
:1020F000D1F70895789484B5826084BD84B58160F9
:1021000084BD85B5826085BD85B5816085BDEEE6FF
:10211000F0E0808181608083E1E8F0E010828081DE
:1021200082608083808181608083E0E8F0E080814C
:1021300081608083E1EBF0E0808184608083E0EB6C
:10214000F0E0808181608083EAE7F0E08081846054
:1021500080838081826080838081816080838081B0
:10216000806880831092C1000895833081F028F444
:10217000813099F08230A9F008958730A9F0883035
:10218000C9F08430B1F4809180008F7D03C08091CC
:1021900080008F7780938000089584B58F7784BD09
:1021A000089584B58F7DFBCF8091B0008F778093A9
:1021B000B00008958091B0008F7DF9CF1F93CF9329
:1021C000DF93282F30E0F901E859FF4F8491F9019E
:1021D000E458FF4FD491F901E057FF4FC491CC234D
:1021E000A1F0162F8111C1DFEC2FF0E0EE0FFF1FE1
:1021F000EC55FF4FA591B4918FB7F894EC91111164
:1022000008C0D095DE23DC938FBFDF91CF911F9163
:102210000895DE2BF8CFFC01918D228D892F90E05F
:10222000805C9F4F821B91098F7399270895FC0151
:10223000918D828D981731F0828DE80FF11D858D7B
:1022400090E008958FEF9FEF0895FC01918D828DAE
:10225000981761F0A28DAE0FBF2FB11D5D968C91C6
:10226000928D9F5F9F73928F90E008958FEF9FEF05
:102270000895FC01538D448D252F30E0842F90E08C
:10228000821B930B541710F0CF9608950197089571
:10229000FC01A48DA80FB92FB11DA35ABF4F2C91DB
:1022A000848D90E001968F739927848FA689B789D2
:1022B0002C93A089B1898C91837080648C93938DC9
:1022C000848D981306C00288F389E02D80818F7D6C
:1022D00080830895CF93DF93EC01888D8823B1F03C
:1022E000AA89BB89E889F9898C9185FD03C0808121
:1022F00086FD0CC00FB607FCF7CF8C9185FFF2CF9F
:10230000808185FFEDCFCE01C3DFEACFDF91CF9192
:102310000895EF92FF920F931F93CF93DF93EC01F9
:1023200081E0888F9B8D8C8D98131AC0E889F9897C
:10233000808185FF15C09FB7F894EE89FF8960837F
:10234000E889F98980818370806480839FBF81E000
:1023500090E0DF91CF911F910F91FF90EF90089542
:10236000F62E0B8D10E00F5F1F4F0F731127E02E1D
:102370008C8D8E110BC00FB607FCFACFE889F98956
:10238000808185FFF5CFCE0183DFF2CFEB8DEC0F9F
:10239000FD2FF11DE35AFF4FF0829FB7F8940B8F8A
:1023A000EA89FB8980818062D0CFCF92DF92EF9261
:1023B000FF921F93CF93DF93EC016A017B01122FF1
:1023C000E889F98982E08083C11481EED806E104AE
:1023D000F10499F060E079E08DE390E0A7019601C7
:1023E000F5D0215031094109510956954795379546
:1023F0002795211580E1380790F0E889F989108246
:1024000060E874E88EE190E0A7019601DFD02150EA
:102410003109410951095695479537952795EC851E
:10242000FD853083EE85FF852083188EEC89FD893C
:102430001083EA89FB89808180618083EA89FB8936
:10244000808188608083EA89FB89808180688083BD
:10245000EA89FB8980818F7D8083DF91CF911F91F5
:10246000FF90EF90DF90CF9008951F920F920FB6DC
:102470000F9211242F938F939F93EF93FF93E091EB
:102480001602F09117028081E0911C02F0911D026A
:1024900082FD1BC0908180911F028F5F8F732091FE
:1024A0002002821741F0E0911F02F0E0EA5FFD4F49
:1024B000958F80931F02FF91EF919F918F912F91A4
:1024C0000F900FBE0F901F9018958081F4CF1F9230
:1024D0000F920FB60F9211242F933F934F935F9358
:1024E0006F937F938F939F93AF93BF93EF93FF93DC
:1024F00086E092E0CDDEFF91EF91BF91AF919F9189
:102500008F917F916F915F914F913F912F910F909C
:102510000FBE0F901F901895E6E0F2E01382128232
:1025200088EE93E0A0E0B0E084839583A683B78330
:1025300080E291E09183808385EC90E095878487A9
:1025400084EC90E09787868780EC90E0918B808B7D
:1025500081EC90E0938B828B82EC90E0958B848B66
:1025600086EC90E0978B868B118E128E138E148ED4
:102570000895AF92BF92CF92DF92EF92FF920F93A6
:102580001F93CF93DF936C017B018B01040F151F09
:10259000EB015E01AE18BF08C017D10759F0699171
:1025A000D601ED91FC910190F081E02DC6010995D5
:1025B000892B79F7C501DF91CF911F910F91FF9082
:1025C000EF90DF90CF90BF90AF900895A1E21A2EC8
:1025D000AA1BBB1BFD010DC0AA1FBB1FEE1FFF1FC7
:1025E000A217B307E407F50720F0A21BB30BE40B17
:1025F000F50B661F771F881F991F1A9469F760955E
:102600007095809590959B01AC01BD01CF01089517
:10261000EE0FFF1F0590F491E02D0994FB01DC0102
:1026200002C001900D9241505040D8F70895F8949F
:02263000FFCFDA
:1026320000003301000080BF2E0100000000650B86
:10264200930B020B2E0B050B0C0B1F0B0000000053
:0E2652008911B91239116A110B1125111711D6
:00000001FF
